S020000053414D4432315F474343496E746572727570745F50726F6A2E7372656389
S113000078240020190100001501000015010000EA
S113001000000000000000000000000000000000DC
S113002000000000000000000000000015010000B6
S11300300000000000000000150100001501000090
S11300401501000015010000150100001501000054
S1130050C102000015010000150100001501000097
S11300601501000015010000150100001501000034
S11300701501000015010000150100001501000024
S11300801501000015010000B10200001501000077
S11300901501000000000000000000001501000030
S11300A015010000150100001501000015010000F4
S11300B00000000010B5064C2378002B07D1054B37
S11300C0002B02D0044800E000BF0123237010BDC0
S11300D0340400200000000040050000084B10B567
S11300E0002B03D00749084800E000BF0748036815
S11300F0002B00D110BD064B002BFBD09847F9E72D
S11301000000000038040020400500004005000005
S113011000000000FEE70000F8B52A4A2A4B9A4284
S113012011D01A00294B9A420DD2294A03339B1A43
S11301309B0801339B000022234822498C58845099
S113014004329A42FAD1234A234B9A420AD2D34325
S113015021495B1803218B4304339B18002102C2FD
S11301609342FCD11D4AFF211D4B8B439360FD3903
S113017090235B001B4AD1501B4AD3780325AB4321
S113018002242343D370D3780C27BB43082633437C
S1130190D370164B987B30229043202210439873DF
S11301A0997BB943314399739A7BAA4322439A7347
S11301B00F4A536880210B4353600E4B98470E4BF4
S11301C09847FEE7400500000000002034040020AA
S11301D004000020340400207804002000ED00E036
S11301E00000000000700041005000410048004140
S11301F0004000417903000011030000014A024B52
S11302001A60704740420F000000002010B5094BEF
S11302109968094A114399608824195908200143AF
S1130220195159690A435A6194215A5802435A5040
S113023010BDC0460044004100010208154A164B97
S11302409A62164A9369402003439361144A53887F
S113025014490B435380144B9A69A0210905114397
S11302609961DA680243DA601A7802210A431A7043
S11302701A005378DB09012BFBD00C4AC1218900F9
S11302805358FF208343BF38034353501023136054
S11302907047C046400003D00044004100040040C1
S11302A0000C0040054000000018004000E100E0A0
S11302B0024A937B10210B4393737047002C004236
S11302C010B5104A13780133DBB21370DA070DD47A
S11302D00D4894214258082422434250FF2B0CD04D
S11302E00A4A136940210B43136110BD0648982143
S11302F04258082422434250F0E70022014B1A706E
S1130300EEE7C046500400200044004100180040BD
S113031010B5144B9847144B9847144B984762B642
S1130320134A8024A4028020400080210905936997
S11303302343936193690343936193690B439361EB
S11303400C4B013B002BFCD153692343536153698C
S11303500343536153690B435361064B013B002B29
S1130360FCD1E4E7FD0100000D0200003D020000A5
S11303700044004150C3000070B50D4E0D4D0024E3
S1130380AD1BAD1005D0A300F35801349847A54226
S1130390F9D100F0C3F8084E084D0024AD1BAD1090
S11303A005D0A300F35801349847A542F9D170BD94
S11303B0280500002805000028050000300500007D
S11303C0034B10B5002B02D0024800F005F810BD15
S11303D000000000E903000010B501000023002222
S11303E0002000F01FF810BD70B5094B094CE41A49
S11303F0A41009D0084AA518AD00ED182B68013CDB
S11304009847043D002CF9D100F092F870BDC04625
S11304103C05000040050000FFFFFF3F7047C04659
S11304207047C046F0B54E464546DE465746E0B5F1
S1130430364D83B00600286898460F009146FFF7B2
S1130440EDFF334B1C68A4235B00E058002852D016
S113045043681F2B13DC5A1C0192002E28D1019AE9
S113046002339B0042601F502868FFF7D9FF002029
S113047003B03CBC90469946A246AB46F0BD254B22
S1130480002B3DD0C820400000E000BF002837D03A
S1130490A42200235200A15843600160A0504032BE
S11304A0835004328350013301930023002ED6D0AD
S11304B09A00924682444A46882154466250C42295
S11304C05200914681444A468739994012688B46C6
S11304D00A4394464A4661461160842241465200CA
S11304E0A150022EBBD102005C468D32FF3211684E
S11304F00C431460B3E720004D30FF30E050A7E711
S11305002868FFF78DFF01204042B1E73004002046
S1130510180500000000000008000020F8B5C046DF
S1130520F8BC08BC9E467047C1030000DD00000013
S1130530F8B5C046F8BC08BC9E467047B50000003C
S113054040420F000000000000000000F402002000
S11305505C030020C4030020000000000000000031
S11305600000000000000000000000000000000087
S11305700000000000000000000000000000000077
S11305800000000000000000000000000000000067
S11305900000000000000000000000000000000057
S11305A00000000000000000000000000000000047
S11305B00000000000000000000000000000000037
S11305C00000000000000000000000000000000027
S11305D00000000000000000000000000000000017
S11305E00000000000000000000000000000000007
S11305F001000000000000000E33CDAB34126DE6A4
S1130600ECDE05000B00000000000000000000000C
S113061000000000000000000000000000000000D6
S113062000000000000000000000000000000000C6
S113063000000000000000000000000000000000B6
S113064000000000000000000000000000000000A6
S10709705404002007
S9030000FC
